:0F00EC0012010212008F7F0A7E001200B280F410
:0400B2008E088F091C
:1000B600E4F50AF50BC3E50B9509E50A9508500D1D
:0D00C6001200D4050BE50B70EC050A80E874
:0100D300220A
:1000D4005389F0438901C2A9758CFC758A67C28D66
:0800E400D28C308DFDC28C228C
:0600FB00C100020C000030
:03010200D2902276
:10008F00050DE50D7002050CC39464E50C9400405A
:10009F0011E4F50CF50D200005D200C29022C2002C
:0300AF00D29022CA
:03000000020003F8
:0C000300787FE4F6D8FD75812002004AE9
:10000F000200ECE493A3F8E493A34003F68001F21B
:10001F0008DFF48029E493A3F85407240CC8C333F2
:10002F00C4540F4420C8834004F456800146F6DFC1
:10003F00E4800B01020408102040809000FBE47E56
:10004F00019360BCA3FF543F30E509541FFEE493B6
:10005F00A360010ECF54C025E060A840B8E493A37D
:10006F00FAE493A3F8E493A3C8C582C8CAC583CAA8
:10007F00F0A3C8C582C8CAC583CADFE9DEE780BE60
:0101010000FD
:00000001FF
