:0801450012015412012C80FB91
:10010C00E4FDFCC3ED9FEC9E5015E4FBFA0BBB0029
:0F011C00010AEB646E4A70F50DBD00010C80E422
:01012B0022B1
:06014D00C100020C0000DD
:06015400D29075A0FF220D
:10012C007F1E12008F9200300008050DE50D700245
:09013C00050CAF0DAE0C02015AD6
:02008F00AB07BD
:10009100C201750BD0750AC57509FF7508FF20905F
:1000A100367E0012010C20902E209010780812004C
:1000B100ECE4FBFAF9F8C31200DB70EDE4FFFEFD9E
:1000C100FCAB0BAA0AA909A808C31200DB7006C27F
:0900D10001B2978002D201A201E4
:0100DA002203
:05015A00EFF4F5A02206
:03000000020003F8
:0C000300787FE4F6D8FD75812002004AE9
:1000DB00EB9FF5F0EA9E42F0E99D42F0E89C45F07B
:0100EB0022F2
:1000EC007401FF3395E0FEFDFC080808E62FFFF6CF
:1000FC0018E63EFEF618E63DFDF618E63CFCF62248
:10000F00020145E493A3F8E493A34003F68001F2C1
:10001F0008DFF48029E493A3F85407240CC8C333F2
:10002F00C4540F4420C8834004F456800146F6DFC1
:10003F00E4800B010204081020408090014DE47E03
:10004F00019360BCA3FF543F30E509541FFEE493B6
:10005F00A360010ECF54C025E060A840B8E493A37D
:10006F00FAE493A3F8E493A3C8C582C8CAC583CAA8
:10007F00F0A3C8C582C8CAC583CADFE9DEE780BE60
:0101530000AB
:00000001FF
