:0804E0001204C61201A280FE05
:100399000A232323204F7065726174696F6E73207D
:1003A900737572206C657320626974730A0A00415F
:1003B900203D2000203D20000A0042203D20000A67
:1003C900232323204F706572617465757220436F12
:1003D9006D706C656D656E74616972650A0A0043BA
:1003E9006F6D706C656D656E746169726528412900
:0403F900203D200083
:1001A2007508FE75090A750A0B7BFF7A03799912A5
:1001B20004407BFF7A0379B8120440AF087E007DC9
:1001C200021202457BFF7A0379BD120440E4FDAFBF
:1001D200081202BC7BFF7A0379BD120440AF087E8D
:1001E20000E4FD12032E7BFF7A0379C11204407BE7
:1001F200FF7A0379C31204407D04AF0AAE091202EA
:10020200457BFF7A0379BD120440E4FDAF0AAE09D3
:1002120012032E7BFF7A0379C11204407BFF7A031B
:1002220079C81204407BFF7A0379E8120440E5089A
:10023200F4FFE4F4FE7D021202457BFF7A0379C1EA
:0302420002044073
:100481003078006200303132333435363738394113
:05049100424344454612
:0E04B700AE07BF0A027E0D8E993099FDC299E4
:0104C5002214
:10046A00E4FDEEC4F854F0C868FEEFC4540F48FF28
:06047A000D4E70EEAF050F
:010480002259
:10049600E4FB7C007D0A1200300BEF4E70F4AF03D4
:0104A6002233
:0F04A700E4FDEEC313FEEF13FF0D4E70F5AF052E
:0104B6002223
:0403FD008F118D12BD
:10040100E4F513751701F516F515F514E5127006E7
:100411007F01FEFDFC22AB17AA16A915A814AF1186
:10042100E4FCFDFE1200858F178E168D158C1405C8
:0E04310013E513B512E0AF17AE16AD15AC14FF
:01043F00229A
:0E04C600758920759850758DFDC2ACD28E22BE
:060440008B118A128913E2
:10044600E4FDAB11AA12A9138D8275830012000375
:100456006011AF050D8F82758300120003FF120431
:03046600B780DF7D
:010469002270
:02024500AC0506
:100247008E0B8F0C12046A8F0F7BFF7A0479811251
:100257000440EC6005C3950F5002AC0F8C101510CD
:10026700AD107F101203FDA804A905AA06AB07AEBF
:100277000BAF0CE4FCFD1201108E0D8F0EAD107F3D
:10028700101203FDA804A905AA06AB07AE0BAF0C15
:10029700E4FCFD120110AE02AF038E0B8F0C7486C7
:1002A700250EF5827404350DF583E493FF1204B728
:0502B700E51070AA2211
:0402BC00AC05AD07D9
:1002C000ED7E008E0BF50C1204A78F0E7BFF7A04D7
:1002D0007984120440EC6005C3950E5002AC0E8C7C
:1002E0000F150FAD0F7F021203FDA804A905AA0682
:1002F000AB07AE0BAF0CE4FCFD1201108F0DAD0F80
:100300007F021203FDA804A905AA06AB07AE0BAF36
:100310000CE4FCFD120110AE02AF038E0B8F0CE556
:0E0320000D90048693FF1204B7E50F70B4220F
:02032E00AA051E
:100330008E0B8F0C120496EA6004C39F5002AA072A
:100340008A0F150FAD0F7F0A1203FDA804A905AA95
:1003500006AB07AE0BAF0CE4FCFD1201108E0D8F47
:100360000EAD0F7F0A1203FDA804A905AA06AB076C
:10037000AE0BAF0CE4FCFD120110AE02AF038E0B0E
:100380008F0C7486250EF5827404350DF583E49385
:09039000FF1204B7E50F70AA2268
:030000000204D423
:0C04D400787FE4F6D8FD7581170204E083
:10000300BB010CE58229F582E5833AF583E02250B2
:1000130006E92582F8E622BBFE06E92582F8E222FC
:0D002300E58229F582E5833AF583E4932216
:10003000BC000BBE0029EF8DF084FFADF022E4CCB4
:10004000F875F008EF2FFFEE33FEEC33FCEE9DEC7D
:10005000984005FCEE9DFE0FD5F0E9E4CEFD22EDC3
:10006000F8F5F0EE8420D21CFEADF075F008EF2F0D
:10007000FFED33FD4007985006D5F0F222C398FDFE
:050080000FD5F0EA229B
:10008500E88FF0A4CC8BF0A42CFCE98EF0A42CFC1A
:100095008AF0EDA42CFCEA8EF0A4CDA8F08BF0A498
:1000A5002DCC3825F0FDE98FF0A42CCD35F0FCEBF7
:1000B5008EF0A4FEA9F0EB8FF0A4CFC5F02ECD39BC
:0F00C500FEE43CFCEAA42DCE35F0FDE43CFC2229
:1000D40075F008758200EF2FFFEE33FECD33CDCCE3
:1000E40033CCC58233C5829BED9AEC99E582984066
:1000F4000CF582EE9BFEED9AFDEC99FC0FD5F0D643
:10010400E4CEFBE4CDFAE4CCF9A88222B800C1B96C
:100114000059BA002DEC8BF084CFCECDFCE5F0CBAA
:10012400F97818EF2FFFEE33FEED33FDEC33FCEBE3
:1001340033FB10D703994004EB99FB0FD8E5E4F99E
:10014400FA227818EF2FFFEE33FEED33FDEC33FC8B
:10015400C933C910D7059BE99A4007EC9BFCE99A7F
:10016400F90FD8E0E4C9FAE4CCFB2275F010EF2FC4
:10017400FFEE33FEED33FDCC33CCC833C810D707C4
:100184009BEC9AE899400AED9BFDEC9AFCE899F8FF
:0E0194000FD5F0DAE4CDFBE4CCFAE4C8F92292
:00000001FF
