:0805C4001205AA1201A280FE3B
:100426000A232323204F7065726174696F6E7320EF
:10043600737572206C657320626974730A0A0041D1
:100446002000203D20000A004220004320000A230D
:100456002323204F706572617465757220737572FF
:10046600206C657320626974730A0A00436F6D70AD
:0F0476006C656D656E746169726528412920009F
:1001A2007508FE75090F750A0A750B0BE4F50C7BD1
:1001B200FF7A0479261205087BFF7A0479457511C6
:1001C2002E7D1E1204C8AF087E007D0812034E7BEE
:1001D200FF7A047948120508AF087E007D021202F8
:1001E200D77BFF7A047948120508AF087E00E4FD48
:1001F2001203BB7BFF7A04794C1205087BFF7A0459
:10020200794E75112E7D1E1204C8AF097E007D083D
:1002120012034E7BFF7A047948120508AF097E006B
:100222007D021202D77BFF7A047948120508AF09D2
:100232007E00E4FD1203BB7BFF7A04794C120508B1
:100242007BFF7A04795175112E7D1E1204C87D1030
:10025200AF0BAE0A12034E7BFF7A047948120508EF
:100262007D04AF0BAE0A1202D77BFF7A04794812E3
:100272000508E4FDAF0BAE0A1203BB7BFF7A0479DB
:100282004C1205087BFF7A04795412050885080C84
:100292007BFF7A04794575112E7D1E1204C8AF0CBE
:1002A2007E007D0812034E7BFF7A04794C1205080A
:1002B200E508F4F50C7BFF7A04797275112E7D1E28
:1002C2001204C8AF0C7E007D0812034E7BFF7A0435
:0502D200794C02050853
:10056500307800620030313233343536373839412E
:0505750042434445462D
:0E059B00AE07BF0A027E0D8E993099FDC299FF
:0105A900222F
:060532008B148A158916E6
:10053800E4FFAB14AA15A9168F8275830012000375
:0505480060030F80EDCF
:01054D00228B
:10054E00E4FDEEC4F854F0C868FEEFC4540F48FF43
:06055E000D4E70EEAF052A
:010564002274
:10057A00E4FB7C007D0A1200300BEF4E70F4AF03EF
:01058A00224E
:0F058B00E4FDEEC313FEEF13FF0D4E70F5AF0549
:01059A00223E
:040485008F138D1430
:10048900E4F515751901F518F517F516E514700653
:100499007F01FEFDFC22AB19AA18A917A816AF13F4
:1004A900E4FCFDFE1200858F198E188D178C160538
:0E04B90015E515B514E0AF19AE18AD17AC1669
:0104C7002212
:0E05AA00758920759850758DFDC2ACD28E22D9
:060508008B138A14891513
:10050E00E4FDAB13AA14A9158D82758300120003A6
:10051E006011AF050D8F82758300120003FF120567
:03052E009B80DFD0
:0105310022A7
:0604C8008B0D8A0E890F66
:1004CE001205328F12E4FCEDC395125002AD12EC00
:1004DE00D39D5021AB0DAA0EA90F8C8275830012ED
:1004EE000003F513ECD395124003851113AF1312CD
:0A04FE00059B0C80DA7F2002059BAD
:0202D700AC0574
:1002D9008E0D8F0E12054E8F117BFF7A05796512EF
:1002E9000508EC6005C395115002AC118C1215126A
:1002F900AD127F10120485A804A905AA06AB07AEA2
:100309000DAF0EE4FCFD1201108E0F8F10AD127FA0
:1003190010120485A804A905AA06AB07AE0DAF0EF5
:10032900E4FCFD120110AE02AF038E0D8F0E746A4C
:100339002510F5827405350FF583E493FF12059BAB
:05034900E51270AA227C
:02034E00AC05FC
:100350008E0D8F0E12058B8F107BFF7A0579681238
:100360000508EC6005C395105002AC108C111511F6
:10037000AD117F02120485A804A905AA06AB07AE39
:100380000DAF0EE4FCFD1201108F0FAD117F0212B4
:100390000485A804A905AA06AB07AE0DAF0EE4FCC0
:1003A000FD120110AE02AF038E0D8F0EE50F90050A
:0B03B0006A93FF12059BE51170B42258
:0203BB00AA0591
:1003BD008E0D8F0E12057AEA6004C39F5002AA07B4
:1003CD008A111511AD117F0A120485A804A905AA79
:1003DD0006AB07AE0DAF0EE4FCFD1201108E0F8FB4
:1003ED0010AD117F0A120485A804A905AA06AB0752
:1003FD00AE0DAF0EE4FCFD120110AE02AF038E0D7B
:10040D008F0E746A2510F5827405350FF583E4930C
:09041D00FF12059BE51170AA22F3
:030000000205B83E
:0C05B800787FE4F6D8FD7581190205C4B7
:10000300BB010CE58229F582E5833AF583E02250B2
:1000130006E92582F8E622BBFE06E92582F8E222FC
:0D002300E58229F582E5833AF583E4932216
:10003000BC000BBE0029EF8DF084FFADF022E4CCB4
:10004000F875F008EF2FFFEE33FEEC33FCEE9DEC7D
:10005000984005FCEE9DFE0FD5F0E9E4CEFD22EDC3
:10006000F8F5F0EE8420D21CFEADF075F008EF2F0D
:10007000FFED33FD4007985006D5F0F222C398FDFE
:050080000FD5F0EA229B
:10008500E88FF0A4CC8BF0A42CFCE98EF0A42CFC1A
:100095008AF0EDA42CFCEA8EF0A4CDA8F08BF0A498
:1000A5002DCC3825F0FDE98FF0A42CCD35F0FCEBF7
:1000B5008EF0A4FEA9F0EB8FF0A4CFC5F02ECD39BC
:0F00C500FEE43CFCEAA42DCE35F0FDE43CFC2229
:1000D40075F008758200EF2FFFEE33FECD33CDCCE3
:1000E40033CCC58233C5829BED9AEC99E582984066
:1000F4000CF582EE9BFEED9AFDEC99FC0FD5F0D643
:10010400E4CEFBE4CDFAE4CCF9A88222B800C1B96C
:100114000059BA002DEC8BF084CFCECDFCE5F0CBAA
:10012400F97818EF2FFFEE33FEED33FDEC33FCEBE3
:1001340033FB10D703994004EB99FB0FD8E5E4F99E
:10014400FA227818EF2FFFEE33FEED33FDEC33FC8B
:10015400C933C910D7059BE99A4007EC9BFCE99A7F
:10016400F90FD8E0E4C9FAE4CCFB2275F010EF2FC4
:10017400FFEE33FEED33FDCC33CCC833C810D707C4
:100184009BEC9AE899400AED9BFDEC9AFCE899F8FF
:0E0194000FD5F0DAE4CDFBE4CCFAE4C8F92292
:00000001FF
