:0804750012045B12017B80FE02
:100318000A232323204F7065726174696F6E7320FE
:10032800737572206C657320626974730A0A0041E0
:10033800203D2000203D20000A0042203D20000AE8
:10034800232323204F706572617465757220436F93
:100358006D706C656D656E74616972650A0A00433B
:100368006F6D706C656D656E746169726528412981
:04037800203D200004
:10017B007508FE75090A750A0B7BFF7A037918124D
:10018B0003C27BFF7A0379371203C2AF087E007D6F
:10019B000212021C7BFF7A03793C1203C2AF0812D6
:1001AB00037C7BFF7A03793C1203C2AF087E00E429
:1001BB00FD12029B7BFF7A0379401203C27BFF7A0D
:1001CB000379421203C27D04AF0AAE0912021C7BF3
:1001DB00FF7A03793C1203C2E4FDAF0AAE091202A7
:1001EB009B7BFF7A0379401203C27BFF7A0379472B
:1001FB001203C27BFF7A0379671203C2E508F4FF8F
:10020B00E4F4FE7D0212021C7BFF7A0379400203A9
:01021B00C220
:1003EC00307800622700270030313233343536370D
:1003FC00383941424344454630303030303030306B
:01040C0030BF
:0E044C00AE07BF0A027E0D8E993099FDC2994F
:01045A00227F
:10040D00E4FDEEC4F854F0C868FEEFC4540F48FF85
:06041D000D4E70EEAF056C
:0104230022B6
:10043B00E4FB7C007D0A1201260BEF4E70F4AF0338
:01044B00228E
:10042400E4FE7C01ED70037F0122EC8FF0A4FC0E4E
:06043400EEB505F6AF0471
:01043A00229F
:0E045B00758920759850758DFDC2ACD28E2229
:0603C2008B148A15891658
:1003C800E4FDAB14AA15A9168D827583001200F9F5
:1003D8006011AF050D8F827583001200F9FF1204BA
:0303E8004C80DF67
:0103EB0022EF
:06021C008E0B8F0C8D0D0E
:10022200850B0E850C0F78107C007D007BFF7A0415
:1002320079047E007F041200D37BFF7A0379EC12EB
:1002420003C2E50D7009AF0CAE0B12040D8F0DAD9C
:100252000DE50F540FFB7A00E50EC4F854F0C868A0
:10026200F50EE50FC4540F48F50FED601674F42B2C
:10027200F58274033AF583E493FF1D74102DF8A6FA
:100282000780CEE4FDED650D600EAF050D74102FF5
:08029200F8E6FF12044C80EDB8
:01029A002241
:10037C008F0B750C077BFF7A0379EF1203C2AD0C60
:10038C007F02120424E50B8FF084FBAD0C7F02126C
:10039C000424E50B8FF08485F00BAF03EF9003F48E
:1003AC0093FF12044CE50C6004150C80D17BFF7A92
:0603BC000379F20203C206
:06029B008E0B8F0C8D0D8F
:1002A100850B0E850C0F78127C007D007BFF7A0494
:1002B10079087E007F051200D3E50D7009AF0CAE01
:1002C1000B12043B8F0DAB0DAE0EAF0F7C007D0A00
:1002D1001201268C108D11AE0EAF0F7C007D0A121B
:1002E10001268E0E8F0FEB601874F42511F58274C0
:1002F100033510F583E493FF1B74122BF8A60780D6
:10030100C7E4FBEB650D600EAF030B74122FF8E62B
:06031100FF12044C80ED18
:0103170022C3
:030000000204698E
:0C046900787FE4F6D8FD7581160204755A
:10000300E709F608DFFA8046E709F208DFFA803EDF
:1000130088828C83E709F0A3DFFA8032E309F608CC
:10002300DFFA8078E309F208DFFA807088828C8334
:10003300E309F0A3DFFA806489828A83E0A3F608E8
:10004300DFFA805889828A83E0A3F208DFFA804CC2
:1000530080D280FA80C680D4806980F28033801099
:1000630080A680EA809A80A880DA80E280CA803302
:1000730089828A83ECFAE493A3C8C582C8CCC5837A
:10008300CCF0A3C8C582C8CCC583CCDFE9DEE7804A
:100093000D89828A83E493A3F608DFF9ECFAA9F0C9
:1000A300EDFB2289828A83ECFAE0A3C8C582C8CC1F
:1000B300C583CCF0A3C8C582C8CCC583CCDFEADE38
:1000C300E880DB89828A83E493A3F208DFF980CC9A
:1000D30088F0EF60010E4E60C388F0ED2402B40493
:1000E3000050B9F582EB2402B4040050AF2323453A
:0600F3008223900053730C
:1000F900BB010CE58229F582E5833AF583E02250BC
:1001090006E92582F8E622BBFE06E92582F8E22205
:0D011900E58229F582E5833AF583E493221F
:10012600BC000BBE0029EF8DF084FFADF022E4CCBD
:10013600F875F008EF2FFFEE33FEEC33FCEE9DEC86
:10014600984005FCEE9DFE0FD5F0E9E4CEFD22EDCC
:10015600F8F5F0EE8420D21CFEADF075F008EF2F16
:10016600FFED33FD4007985006D5F0F222C398FD07
:050176000FD5F0EA22A4
:00000001FF
