:080AF600120ADC12000380FE6D
:10069D000A232323204F7065726174696F6E732076
:1006AD00737572206C657320626974730A0A004158
:1006BD002000203D20000A004220004320000A2394
:1006CD002323204F706572617465757220436F6DC1
:1006DD00706C656D656E74616972650A0A00436FB1
:1006ED006D706C656D656E74616972652841292048
:1006FD00000A232323204F70657261746575722083
:10070D004554204C6F67697175650A0A0045542080
:10071D004C6F676971756528412C20422920000AAC
:10072D00232323204F7065726174657572204F55B8
:10073D00204C6F67697175650A0A004F55204C6F23
:10074D00676971756528412C20422920000A2323F1
:10075D0023204F7065726174657572204F55204569
:10076D0078636C757369660A0A004F552045786386
:10077D006C7573696628412C20422920000A2323B9
:10078D0023204F70657261746575722044656361D5
:10079D006C616765204761756368650A0A00446589
:1007AD0063616C6167652047617563686528412CDD
:1007BD0020322920000A232323204F706572617493
:1007CD0065757220446563616C6167652044726F65
:1007DD006974650A0A00446563616C61676520444C
:1007ED00726F69746528412C20322920000A232359
:1007FD0023204F6374657420466F72742026204643
:10080D006169626C650A0A004F6374657420466FF6
:10081D00727428432920004F637465742046616902
:08082D00626C652843292000DC
:100003007508FE75090F750A0A750B0BE4F50CF5F7
:100013000DF50E7BFF7A06799D120A507BFF7A0657
:1000230079BC75132E7D1E12098CAF087E007D02EC
:100033001208357BFF7A0679BF120A50AF087E009B
:100043007D081208AF7BFF7A0679BF120A50AF080A
:100053007E00E4FD12091F7BFF7A0679C3120A5062
:100063007BFF7A0679C575132E7D1E12098CAF09A5
:100073007E007D021208357BFF7A0679BF120A5093
:10008300AF087E007D081208AF7BFF7A0679BF12A6
:100093000A50AF097E00E4FD12091F7BFF7A06793F
:1000A300C3120A507BFF7A0679C875132E7D1E1280
:1000B300098C7D04AF0BAE0A1208357BFF7A0679F3
:1000C300BF120A50AF087E007D081208AF7BFF7A8B
:1000D3000679BF120A50E4FDAF0BAE0A12091F7B6B
:1000E300FF7A0679C3120A507BFF7A0679CB120A8C
:1000F3005085080C7BFF7A0679BC75132E7D1E1282
:10010300098CAF0C7E007D081208AF7BFF7A06795D
:10011300BF120A50AF0C7E007D021208357BFF7AB6
:100123000679C3120A50E508F4F50C7BFF7A0679C9
:10013300EB75132E7D1E12098CAF0C7E007D081209
:1001430008AF7BFF7A0679BF120A50AF0C7E007DA1
:10015300021208357BFF7A0679C3120A507BFF7AB5
:100163000679FE120A5085080C7BFF7A0679BC7566
:10017300132E7D1E12098CAF0C7E007D081208AF72
:100183007BFF7A0679BF120A50AF0C7E007D021204
:1001930008357BFF7A0679C3120A5085090C7BFF69
:1001A3007A0679C575132E7D1E12098CAF0C7E005D
:1001B3007D081208AF7BFF7A0679BF120A50AF0C95
:1001C3007E007D021208357BFF7A0679C3120A503E
:1001D300E5085509F50C7BFF7A07791A75132E7D0F
:1001E3001E12098CAF0C7E007D081208AF7BFF7ACC
:1001F3000679BF120A50AF0C7E007D021208357BD0
:10020300FF7A0679C3120A507BFF7A07792C120A08
:100213005085080C7BFF7A0679BC75132E7D1E1260
:10022300098CAF0C7E007D081208AF7BFF7A06793C
:10023300BF120A50AF0C7E007D021208357BFF7A95
:100243000679C3120A5085090C7BFF7A0679C575B6
:10025300132E7D1E12098CAF0C7E007D081208AF91
:100263007BFF7A0679BF120A50AF0C7E007D021223
:1002730008357BFF7A0679C3120A50E5084509F56C
:100283000C7BFF7A07794875132E7D1E12098CAFFC
:100293000C7E007D081208AF7BFF7A0679BF120A35
:1002A30050AF0C7E007D021208357BFF7A0679C3BE
:1002B300120A507BFF7A07795A120A5085080C7B81
:1002C300FF7A0679BC75132E7D1E12098CAF0C7E46
:1002D300007D081208AF7BFF7A0679BF120A50AF80
:1002E3000C7E007D021208357BFF7A0679C3120A61
:1002F3005085090C7BFF7A0679C575132E7D1E1276
:10030300098CAF0C7E007D081208AF7BFF7A06795B
:10031300BF120A50AF0C7E007D021208357BFF7AB4
:100323000679C3120A50E5086509F50C7BFF7A07C5
:10033300797775132E7D1E12098CAF0C7E007D0814
:100343001208AF7BFF7A0679BF120A50AF0C7E000A
:100353007D021208357BFF7A0679C3120A507BFFB0
:100363007A07798A120A5085080C7BFF7A0679BCD2
:1003730075132E7D1E12098CAF0C7E007D081208AA
:10038300AF7BFF7A0679BF120A50AF0C7E007D0265
:100393001208357BFF7A0679C3120A50E50825E077
:1003A30025E0F50C7BFF7A0779AB75132E7D1E12C2
:1003B300098CAF0C7E007D081208AF7BFF7A0679AB
:1003C300BF120A50AF0C7E007D021208357BFF7A04
:1003D3000679C3120A507BFF7A0779C2120A508545
:1003E300080C7BFF7A0679BC75132E7D1E12098CCF
:1003F300AF0C7E007D081208AF7BFF7A0679BF122F
:100403000A50AF0C7E007D021208357BFF7A067915
:10041300C3120A50E5081313543FF50C7BFF7A0708
:1004230079E375132E7D1E12098CAF0C7E007D08B7
:100433001208AF7BFF7A0679BF120A50AF0C7E0019
:100443007D021208357BFF7A0679C3120A507BFFBF
:100453007A0779FA120A50850A0D850B0E7BFF7A0B
:100463000679C875132E7D1E12098C7D10AF0EAE52
:100473000D1208AF7BFF7A0679BF120A507D04AFD5
:100483000EAE0D1208357BFF7A0679C3120A50E5CA
:100493000AF50C7BFF7A08791575132E7D1E120958
:1004A3008CAF0C7E007D081208AF7BFF7A0679BF04
:1004B300120A50AF0C7E007D021208357BFF7A06CC
:1004C30079C3120A50E50BF50C7BFF7A0879247582
:1004D300132E7D1E12098CAF0C7E007D081208AF0F
:1004E3007BFF7A0679BF120A50AF0C7E007D0212A1
:0B04F30008357BFF7A0679C3020A502F
:100AA60030780062003031323334353637383941E8
:050AB6004243444546E7
:0E0ADC00758920759850758DFDC2ACD28E22A2
:060A50008B168A178918BD
:100A5600E4F519AB16AA17A9188519827583001231
:0C0A660004FEFF6007120A19051980E762
:010A72002261
:08098C008D128B0F8A108911F6
:10099400120A738F14E4F515E512C39514500385F8
:1009A4001412E515D395125024AB0FAA10A9118582
:1009B40015827583001204FEF516E515D3951440CF
:1009C40003851316AF16120A19051580D57F200268
:0209D4000A19FE
:020835008D0F25
:100837008E108F11120A8F8F147BFF7A0A79A612F6
:100847000A50E50F6005C39514500385140F850FF3
:10085700151515AD157F101209D6A804A905AA0606
:10086700AB07AE10AF11E4FCFD12060B8E128F130F
:10087700AD157F101209D6A804A905AA06AB07AEC5
:1008870010AF11E4FCFD12060BAE02AF038E108F02
:100897001174AB2513F582740A3512F583E493FFBF
:0808A700120A19E51570AA22DE
:0208AF008D0FAB
:1008B1008E108F11120ACC8F137BFF7A0A79A9123D
:1008C1000A50E50F6005C39513500385130F850F7B
:1008D100141514AD147F021209D6A804A905AA069D
:1008E100AB07AE10AF11E4FCFD12060B8F12AD1475
:1008F1007F021209D6A804A905AA06AB07AE10AF5C
:1009010011E4FCFD12060BAE02AF038E108F11E550
:0E09110012900AAB93FF120A19E51470B4227B
:02091F008D0F3A
:100921008E108F11120ABBE50F6004C39F50028F16
:100931000F850F141514AD147F0A1209D6A804A946
:1009410005AA06AB07AE10AF11E4FCFD12060B8E33
:10095100128F13AD147F0A1209D6A804A905AA069D
:10096100AB07AE10AF11E4FCFD12060BAE02AF03F4
:100971008E108F1174AB2513F582740A3512F5832D
:0B098100E493FF120A19E51470AA228B
:100A1900BF07047F078028BF08047F088021BF091A
:100A2900047F09801ABF0D047F0A8013BF0B047F5E
:100A39000B800CBF0C047F0C8005BF0A027F0D8F51
:060A4900993099FDC299ED
:010A4F002284
:060A73008B178A18891997
:100A7900E4FFAB17AA18A9198F827583001204FE27
:050A890060030F80ED89
:010A8E002245
:100A8F00E4FDEEC4F854F0C868FEEFC4540F48FFFD
:060A9F000D4E70EEAF05E4
:010AA500222E
:100ABB00E4FB7C007D0A12052B0BEF4E70F4AF03A9
:010ACB002208
:0F0ACC00E4FDEEC313FEEF13FF0D4E70F5AF0503
:010ADB0022F8
:0409D6008F168D17D4
:1009DA00E4F518751C01F51BF51AF519E5177006EB
:1009EA007F01FEFDFC22AB1CAA1BA91AA819AF168F
:1009FA00E4FCFDFE1205808F1C8E1B8D1A8C1905D6
:0E0A0A0018E518B517E0AF1CAE1BAD1AAC19FD
:010A180022BB
:03000000020AEA07
:0C0AEA00787FE4F6D8FD75811C020AF646
:1004FE00BB010CE58229F582E5833AF583E02250B3
:10050E0006E92582F8E622BBFE06E92582F8E222FC
:0D051E00E58229F582E5833AF583E4932216
:10052B00BC000BBE0029EF8DF084FFADF022E4CCB4
:10053B00F875F008EF2FFFEE33FEEC33FCEE9DEC7D
:10054B00984005FCEE9DFE0FD5F0E9E4CEFD22EDC3
:10055B00F8F5F0EE8420D21CFEADF075F008EF2F0D
:10056B00FFED33FD4007985006D5F0F222C398FDFE
:05057B000FD5F0EA229B
:10058000E88FF0A4CC8BF0A42CFCE98EF0A42CFC1A
:100590008AF0EDA42CFCEA8EF0A4CDA8F08BF0A498
:1005A0002DCC3825F0FDE98FF0A42CCD35F0FCEBF7
:1005B0008EF0A4FEA9F0EB8FF0A4CFC5F02ECD39BC
:0F05C000FEE43CFCEAA42DCE35F0FDE43CFC2229
:1005CF0075F008758200EF2FFFEE33FECD33CDCCE3
:1005DF0033CCC58233C5829BED9AEC99E582984066
:1005EF000CF582EE9BFEED9AFDEC99FC0FD5F0D643
:1005FF00E4CEFBE4CDFAE4CCF9A88222B800C1B96D
:10060F000059BA002DEC8BF084CFCECDFCE5F0CBAA
:10061F00F97818EF2FFFEE33FEED33FDEC33FCEBE3
:10062F0033FB10D703994004EB99FB0FD8E5E4F99E
:10063F00FA227818EF2FFFEE33FEED33FDEC33FC8B
:10064F00C933C910D7059BE99A4007EC9BFCE99A7F
:10065F00F90FD8E0E4C9FAE4CCFB2275F010EF2FC4
:10066F00FFEE33FEED33FDCC33CCC833C810D707C4
:10067F009BEC9AE899400AED9BFDEC9AFCE899F8FF
:0E068F000FD5F0DAE4CDFBE4CCFAE4C8F92292
:00000001FF
