:100336001203EFE92406F9E43AFA1200F989828AEF
:10034600837F017E001201C51203EFE92409F9E457
:100356003AFA1200F91201C11203EFE9240CF9E48A
:100366003AFA1200F91201C11204A61200F98982A2
:0B0376008A837F017E001201C580DD3C
:04043D0002170000A2
:0F0560007B007A0079211202E77B007A00792173
:01056F002269
:1002E7008B308A3189327BFF7A027995C003C0024D
:1002F700C001AB30AA31A9329000061201687BFF1A
:100307007A0579A0C003C002C001AB30AA31A93277
:100317009000091201687BFF7A0579A7C003C00224
:0F032700C001AB30AA31A93290000C120168223C
:1003EF00E5184517701C12056078087C007D007EAB
:1003FF00007F0F1200D3E4FFFE12029575170075F0
:09040F0018017B007A0079082233
:100295008E338F34E53445337010FB7A007908C00E
:1002A50003C002C0011204608027E53464014533B0
:1002B5007010FB7A007908C003C002C0011204C99E
:1002C500800F7B007A007908C003C002C0011204C8
:1002D500601200F989828A83D001D002D00312010D
:0202E500C52230
:0705A000AA09A90A0201C12A
:0705A700AA0CA90D0201C11D
:0A044100C100021B000002190000B8
:0F0570007B007A00793512050C7B007A00793513
:01057F002259
:10050C008B388A39893A7BFF7A037981C003C00220
:0C051C00C001AB38AA39A93A120119221B
:10046000E51A45197016120570781D7C007D007E16
:10047000007F031200D3751900751A017B007A0002
:03048000791D22C1
:100381008B3B8A3C893D7BFF7A0579B2C003C00271
:10039100C001AB3BAA3CA93D9000091201687BFF5B
:1003A1007A047983C003C002C001AB3BAA3CA93DDA
:0703B10090000C120168220C
:0305B200D29022C2
:10048300051CE51C7002051BC394E8E51B9403409F
:1004930011E4F51BF51C200005D200C29022C20016
:0304A300D29022D2
:0A044B00C10102400000023E000063
:0F0580007B007A0079211205287B007A0079210F
:01058F002249
:100528008B248A2589267BFF7A0479ECC003C002D4
:0C053800C001AB24AA25A926120119223B
:1004A600E53F453E701612058078427C007D007E51
:1004B600007F031200D3753E00753F017B007A0072
:0304C60079422256
:1004EC00E4FDFCC3ED9FEC9E5015E4FBFA0BBB0046
:0F04FC00010AEB646E4A70F50DBD00010C80E43F
:01050B0022CD
:0A045500C10202470000024500004A
:0F0590007B007A0079351205447B007A007935BB
:01059F002239
:100544008B388A39893A7BFF7A0379B8C003C002B1
:0C055400C001AB38AA39A93A12011922E3
:1004C900E5464545701612059078497C007D007E09
:1004D900007F031200D37545007546017B007A0041
:0304E9007949222C
:1003B8008B3B8A3C893D7BFF7A0579AEC003C0023E
:1003C800C001AB3BAA3CA93D9000091201687BFF24
:1003D8007A047918C003C002C001AB3BAA3CA93D0E
:0703E80090000C12016822D5
:0405AE007590FF2223
:100418000548E54870020547C394E8E5479403405A
:1004280013E4F547F548200206D20275900F22C260
:05043800027590F022A6
:03000000020209F0
:0C020900787FE4F6D8FD75814B020250AE
:10000300E709F608DFFA8046E709F208DFFA803EDF
:1000130088828C83E709F0A3DFFA8032E309F608CC
:10002300DFFA8078E309F208DFFA807088828C8334
:10003300E309F0A3DFFA806489828A83E0A3F608E8
:10004300DFFA805889828A83E0A3F208DFFA804CC2
:1000530080D280FA80C680D4806980F28033801099
:1000630080A680EA809A80A880DA80E280CA803302
:1000730089828A83ECFAE493A3C8C582C8CCC5837A
:10008300CCF0A3C8C582C8CCC583CCDFE9DEE7804A
:100093000D89828A83E493A3F608DFF9ECFAA9F0C9
:1000A300EDFB2289828A83ECFAE0A3C8C582C8CC1F
:1000B300C583CCF0A3C8C582C8CCC583CCDFEADE38
:1000C300E880DB89828A83E493A3F208DFF980CC9A
:1000D30088F0EF60010E4E60C388F0ED2402B40493
:1000E3000050B9F582EB2402B4040050AF2323453A
:0600F3008223900053730C
:1000F900BB010789828A830201D95005E9F8020107
:10010900C7BBFE05E9F80201EB89828A830201FD7A
:10011900BB011A89828A83D0F0D0E0F8D0E0F9D007
:10012900E0FAD0E0FBE8C0E0C0F00201E25016E9D5
:10013900F8D083D082D0E0F9D0E0FAD0E0FBC082D9
:10014900C0830201D0BBFE16E9F8D083D082D0E08B
:0F015900F9D0E0FAD0E0FBC082C0830201F422AB
:10016800BB0120E58229F582E5833AF583D0F0D0FA
:10017800E0F8D0E0F9D0E0FAD0E0FBE8C0E0C0F069
:100188000201E25018E92582F8D083D082D0E0F944
:10019800D0E0FAD0E0FBC082C0830201D0BBFE18D9
:1001A800E92582F8D083D082D0E0F9D0E0FAD0E017
:0901B800FBC082C0830201F422A5
:0601C1008A838982E473C9
:10021500020336E493A3F8E493A34003F68001F2C6
:1002250008DFF48029E493A3F85407240CC8C333EA
:10023500C4540F4420C8834004F456800146F6DFB9
:10024500E4800B010204081020408090043DE47E08
:10025500019360BCA3FF543F30E509541FFEE493AE
:10026500A360010ECF54C025E060A840B8E493A375
:10027500FAE493A3F8E493A3C8C582C8CAC583CAA0
:10028500F0A3C8C582C8CAC583CADFE9DEE780BE58
:01045F00009C
:0901C700E6FB08E6FA08E6F9225D
:0901D000EBF608EAF608E9F62254
:0901D900E0FBA3E0FAA3E0F92227
:0901E200EBF0A3EAF0A3E9F0221E
:0901EB00E2FB08E2FA08E2F92245
:0901F400EBF208EAF208E9F2223C
:0C01FD00E493FB740193FA740293F9225E
:00000001FF
