:1002C90012031A1200F91201C112031AE92403F9DF
:1002D900E43AFA1200F91201C112033D1200F98938
:0C02E900828A837F017E001201C580DD47
:0A039C00C100020A00000208000080
:0F03B1007B007A0079121202957B007A00791294
:0103C000221A
:100295008B188A19891A7BFF7A0379D1C003C002AA
:1002A500C001AB18AA19A91A1201197BFF7A0279A4
:1002B500F5C003C002C001AB18AA19A91A90000322
:0402C5001201682298
:10031A00E509450870161203B1780C7C007D007E51
:10032A00007F061200D37508007509017B007A0068
:03033A00790C2219
:0403D1007590FF2202
:1002F500050BE50B7002050AC394E8E50A94034073
:1003050013E4F50AF50B200006D20075900F22C202
:05031500007590F022CC
:0A03A600C101022300000221000043
:0F03C1007B007A0079121203807B007A00791298
:0103D000220A
:100380008B158A1689177BFF7A037960C003C00238
:0C039000C001AB15AA16A9171201192212
:10033D00E522452170161203C178257C007D007ED3
:10034D00007F031200D37521007522017B007A0016
:03035D00792522DD
:10036000E4FDFCC3ED9FEC9E5015E4FBFA0BBB00D3
:0F037000010AEB646E4A70F50DBD00010C80E4CC
:01037F00225B
:03000000020209F0
:0C020900787FE4F6D8FD758127020250D2
:10000300E709F608DFFA8046E709F208DFFA803EDF
:1000130088828C83E709F0A3DFFA8032E309F608CC
:10002300DFFA8078E309F208DFFA807088828C8334
:10003300E309F0A3DFFA806489828A83E0A3F608E8
:10004300DFFA805889828A83E0A3F208DFFA804CC2
:1000530080D280FA80C680D4806980F28033801099
:1000630080A680EA809A80A880DA80E280CA803302
:1000730089828A83ECFAE493A3C8C582C8CCC5837A
:10008300CCF0A3C8C582C8CCC583CCDFE9DEE7804A
:100093000D89828A83E493A3F608DFF9ECFAA9F0C9
:1000A300EDFB2289828A83ECFAE0A3C8C582C8CC1F
:1000B300C583CCF0A3C8C582C8CCC583CCDFEADE38
:1000C300E880DB89828A83E493A3F208DFF980CC9A
:1000D30088F0EF60010E4E60C388F0ED2402B40493
:1000E3000050B9F582EB2402B4040050AF2323453A
:0600F3008223900053730C
:1000F900BB010789828A830201D95005E9F8020107
:10010900C7BBFE05E9F80201EB89828A830201FD7A
:10011900BB011A89828A83D0F0D0E0F8D0E0F9D007
:10012900E0FAD0E0FBE8C0E0C0F00201E25016E9D5
:10013900F8D083D082D0E0F9D0E0FAD0E0FBC082D9
:10014900C0830201D0BBFE16E9F8D083D082D0E08B
:0F015900F9D0E0FAD0E0FBC082C0830201F422AB
:10016800BB0120E58229F582E5833AF583D0F0D0FA
:10017800E0F8D0E0F9D0E0FAD0E0FBE8C0E0C0F069
:100188000201E25018E92582F8D083D082D0E0F944
:10019800D0E0FAD0E0FBC082C0830201D0BBFE18D9
:1001A800E92582F8D083D082D0E0F9D0E0FAD0E017
:0901B800FBC082C0830201F422A5
:0601C1008A838982E473C9
:100215000202C9E493A3F8E493A34003F68001F234
:1002250008DFF48029E493A3F85407240CC8C333EA
:10023500C4540F4420C8834004F456800146F6DFB9
:10024500E4800B010204081020408090039CE47EAA
:10025500019360BCA3FF543F30E509541FFEE493AE
:10026500A360010ECF54C025E060A840B8E493A375
:10027500FAE493A3F8E493A3C8C582C8CAC583CAA0
:10028500F0A3C8C582C8CAC583CADFE9DEE780BE58
:0103B000004C
:0901C700E6FB08E6FA08E6F9225D
:0901D000EBF608EAF608E9F62254
:0901D900E0FBA3E0FAA3E0F92227
:0901E200EBF0A3EAF0A3E9F0221E
:0901EB00E2FB08E2FA08E2F92245
:0901F400EBF208EAF208E9F2223C
:0C01FD00E493FB740193FA740293F9225E
:00000001FF
