:100003007F0112030F1200257BFF7A0379CC75154C
:10001300037516E8E4FDFC1202611203E21202C04A
:0200230080FB60
:0203DF00C1005B
:040025007590FF22B1
:0F03CC00200006D20075900F22C2007590F0221B
:10030F00E4FCFDFEFB7AC079A8F812002EE47BE036
:10031F007A2EF9F8120355C3E49FFFE49EF5108F70
:10032F0011E4F512AF121203990512E512C39401ED
:10033F0040F2E4F5C88510CD8510CB8511CC851121
:05034F00CAD2ADD2CAC4
:010354002286
:0303E200D2AF2275
:0403DB004387012231
:1002C000E4F510E51075F008A4240FF8E6D39400C7
:1002D0004031E51075F008A42408F808E6FA08E6AD
:1002E000F912007DE51075F008A4240FF816E5104A
:1002F00075F008A4240DF8E6FE08E64E7005AF1070
:0F0300001203990510E510C3940140B70203DB07
:060261008B108A118912C6
:10026700E4FFEF75F008A42408F808E6FA08E64A60
:100277006009EFC3940150030F80E7EF6401603812
:10028700AA11A912EF75F008A42408F8A61008A669
:100297000208A601EF75F008A4240BF8A60408A627
:1002A70005EF75F008A4240DF8A61508A616EF7536
:0802B700F008A4240FF8E4F69E
:0102BF00221C
:10039900EF75F008A42408F87600087600087600BE
:1003A900EF75F008A4240BF8E4F608F6EF75F008E9
:1003B900A4240DF8E4F608F6EF75F008A4240FF864
:0303C900E4F62235
:03002B000201DDF2
:1001DD00C0E0C0F0C0D075D000C000C002C004C0E7
:0301ED0005C00743
:1001F000C2CFE4FFEF75F008A42408F808E6FA0877
:10020000E6AC024C6046EF75F008A4240BF8E6FC5F
:1002100008E64C7028EF75F008A4240FF806EF7577
:10022000F008A4240DF8E6FC08E6FD4C601EEF750E
:10023000F008A4240BF8A60408A605800FEF75F0BB
:1002400008A4240BF808E616187001160FBF01A4C5
:10025000D007D005D004D002D000D0D0D0F0D0E06C
:01026000326B
:03000000020151A9
:0C015100787FE4F6D8FD7581200201984B
:10002E00E88FF0A4CC8BF0A42CFCE98EF0A42CFC71
:10003E008AF0EDA42CFCEA8EF0A4CDA8F08BF0A4EF
:10004E002DCC3825F0FDE98FF0A42CCD35F0FCEB4E
:10005E008EF0A4FEA9F0EB8FF0A4CFC5F02ECD3913
:0F006E00FEE43CFCEAA42DCE35F0FDE43CFC2280
:10035500C2D5E830E70FB2D5E4C39BFBE49AFAE4D3
:1003650099F9E498F8EC30E717B2D512038B12002F
:10037500BFE4C39BFBE49AFAE499F9E498F8800397
:100385001200BF30D50DE4C39FFFE49EFEE49DFD42
:04039500E49CFC22C6
:06007D008A838982E4730E
:10015D00020003E493A3F8E493A34003F68001F2B5
:10016D0008DFF48029E493A3F85407240CC8C333A3
:10017D00C4540F4420C8834004F456800146F6DF72
:10018D00E4800B01020408102040809003DFE47E20
:10019D00019360BCA3FF543F30E509541FFEE49367
:1001AD00A360010ECF54C025E060A840B8E493A32E
:1001BD00FAE493A3F8E493A3C8C582C8CAC583CA59
:1001CD00F0A3C8C582C8CAC583CADFE9DEE780BE11
:0103E100001B
:1000830075F008758200EF2FFFEE33FECD33CDCC34
:1000930033CCC58233C5829BED9AEC99E5829840B7
:1000A3000CF582EE9BFEED9AFDEC99FC0FD5F0D694
:1000B300E4CEFBE4CDFAE4CCF9A88222B800C1B9BE
:1000C3000059BA002DEC8BF084CFCECDFCE5F0CBFC
:1000D300F97818EF2FFFEE33FEED33FDEC33FCEB35
:1000E30033FB10D703994004EB99FB0FD8E5E4F9F0
:1000F300FA227818EF2FFFEE33FEED33FDEC33FCDD
:10010300C933C910D7059BE99A4007EC9BFCE99AD0
:10011300F90FD8E0E4C9FAE4CCFB2275F010EF2F15
:10012300FFEE33FEED33FDCC33CCC833C810D70715
:100133009BEC9AE899400AED9BFDEC9AFCE899F850
:0E0143000FD5F0DAE4CDFBE4CCFAE4C8F922E3
:00000001FF
