:0800C3001200CB1200AF80FB1C
:10008F00E4FDFCC3ED9FEC9E5015E4FBFA0BBB00A7
:0F009F00010AEB646E4A70F50DBD00010C80E4A0
:0100AE00222F
:0200CE00C1006F
:0300CB00D29022AE
:1000AF00200006D200C2908004C200D2907FE87E6A
:0400BF000302008FA9
:03000000020003F8
:0C000300787FE4F6D8FD75812002004AE9
:10000F000200C3E493A3F8E493A34003F68001F244
:10001F0008DFF48029E493A3F85407240CC8C333F2
:10002F00C4540F4420C8834004F456800146F6DFC1
:10003F00E4800B01020408102040809000CEE47E83
:10004F00019360BCA3FF543F30E509541FFEE493B6
:10005F00A360010ECF54C025E060A840B8E493A37D
:10006F00FAE493A3F8E493A3C8C582C8CAC583CAA8
:10007F00F0A3C8C582C8CAC583CADFE9DEE780BE60
:0100D000002F
:00000001FF
