:0800E6001200F512008F80FBEF
:1000C600E4FDFCC3ED9FEC9E5015E4FBFA0BBB0070
:0F00D600010AEB646E4A70F50DBD00010C80E469
:0100E50022F8
:0600EE00C1000208000041
:0300F500D2902284
:10008F00E4F508F509200006D200C2908004C200F2
:10009F00D2907FC87E001200C60509E509700205DF
:1000AF0008C39405E50894005006C200D29080D58D
:0700BF007FE87E030200C68A
:03000000020003F8
:0C000300787FE4F6D8FD75812002004AE9
:10000F000200E6E493A3F8E493A34003F68001F221
:10001F0008DFF48029E493A3F85407240CC8C333F2
:10002F00C4540F4420C8834004F456800146F6DFC1
:10003F00E4800B01020408102040809000EEE47E63
:10004F00019360BCA3FF543F30E509541FFEE493B6
:10005F00A360010ECF54C025E060A840B8E493A37D
:10006F00FAE493A3F8E493A3C8C582C8CAC583CAA8
:10007F00F0A3C8C582C8CAC583CADFE9DEE780BE60
:0100F400000B
:00000001FF
