:10028A007F011202581202A41202A112002680FB58
:10025800E4FCFDFEFB7AC079A8F812002EE47BE0EE
:100268007A2EF9F81201D7C3E49FFFE49EAD07FF89
:10027800AE05E4F5C88FCD8FCB8ECC8ECAD2ADD269
:01028800CAAB
:010289002252
:0302A100D2AF22B7
:0400260043870122E9
:03002B0002021BB3
:10021B00C0E0C0F0C083C082C0D075D000C000C0A9
:10022B0001C002C003C004C005C006C007C2CF1284
:10023B000003D007D006D005D004D003D002D001E4
:0D024B00D000D0D0D082D083D0F0D0E032EF
:06029A00C1000208000093
:0302A400D29022D3
:100003000509E50970020508C394E8E5089403406F
:1000130011E4F508F509200005D200C29022C200C0
:03002300D2902256
:0300000002014BAF
:0C014B00787FE4F6D8FD75812002019257
:10002E00E88FF0A4CC8BF0A42CFCE98EF0A42CFC71
:10003E008AF0EDA42CFCEA8EF0A4CDA8F08BF0A4EF
:10004E002DCC3825F0FDE98FF0A42CCD35F0FCEB4E
:10005E008EF0A4FEA9F0EB8FF0A4CFC5F02ECD3913
:0F006E00FEE43CFCEAA42DCE35F0FDE43CFC2280
:1001D700C2D5E830E70FB2D5E4C39BFBE49AFAE453
:1001E70099F9E498F8EC30E717B2D512020D12002E
:1001F700B9E4C39BFBE49AFAE499F9E498F880031D
:100207001200B930D50DE4C39FFFE49EFEE49DFDC7
:04021700E49CFC2245
:1001570002028AE493A3F8E493A34003F68001F232
:1001670008DFF48029E493A3F85407240CC8C333A9
:10017700C4540F4420C8834004F456800146F6DF78
:10018700E4800B010204081020408090029AE47E6C
:10019700019360BCA3FF543F30E509541FFEE4936D
:1001A700A360010ECF54C025E060A840B8E493A334
:1001B700FAE493A3F8E493A3C8C582C8CAC583CA5F
:1001C700F0A3C8C582C8CAC583CADFE9DEE780BE17
:0102A000005D
:10007D0075F008758200EF2FFFEE33FECD33CDCC3A
:10008D0033CCC58233C5829BED9AEC99E5829840BD
:10009D000CF582EE9BFEED9AFDEC99FC0FD5F0D69A
:1000AD00E4CEFBE4CDFAE4CCF9A88222B800C1B9C4
:1000BD000059BA002DEC8BF084CFCECDFCE5F0CB02
:1000CD00F97818EF2FFFEE33FEED33FDEC33FCEB3B
:1000DD0033FB10D703994004EB99FB0FD8E5E4F9F6
:1000ED00FA227818EF2FFFEE33FEED33FDEC33FCE3
:1000FD00C933C910D7059BE99A4007EC9BFCE99AD7
:10010D00F90FD8E0E4C9FAE4CCFB2275F010EF2F1B
:10011D00FFEE33FEED33FDCC33CCC833C810D7071B
:10012D009BEC9AE899400AED9BFDEC9AFCE899F856
:0E013D000FD5F0DAE4CDFBE4CCFAE4C8F922E9
:00000001FF
