:10001A007F011203E312041512042612042280FB44
:1003E300E4FCFDFEFB7AC079A8F812002EE47BE062
:1003F3007A2EF9F81200B9C3E49FFFE49EAD07FF1C
:10040300AE05E4F5C88FCD8FCB8ECC8ECAD2ADD2DC
:01041300CA1E
:0104140022C5
:03042600D2AF2230
:0404220043870122E9
:03002B000203A32A
:1003A300C0E0C0F0C083C082C0D075D000C000C020
:1003B30001C002C003C004C005C006C007C2CF12FB
:1003C300014B120231D007D006D005D004D003D0A0
:1003D30002D001D000D0D0D082D083D0F0D0E03290
:10000300010800010903020A0000020C0000020EAD
:06001300000002100000D5
:0D041500D290D291D292D293D294D295225D
:10014B00050BE50B7002050AC39464E50A94005095
:10015B0003020230E4F50AF50BE50814603814606D
:10016B005114606A1470030201F514700302021239
:10017B0024056003020230C290D291D292050FE5A2
:10018B000F7002050EC39403E50E94005003020298
:10019B0030750801806EC290D291D292050FE50F97
:1001AB007002050EC39402E50E94004078750802A8
:1001BB008052C290D291D292050FE50F7002050EBC
:1001CB00C39401E50E9400405C7508038036D29011
:1001DB00D291C292050FE50F7002050EC39403E591
:1001EB000E94004040750804801AD290C291D292AE
:1001FB00050FE50F7002050EC39402E50E94004047
:10020B0024750805E4801AC290D291D292050FE5AD
:10021B000F7002050EC39401E50E94004007E4F540
:06022B0008F50EF50F229C
:10023100050DE50D7002050CC39464E50C940050A6
:1002410003020316E4F50CF50DE50914603814609A
:100251005114606A1470030202DB1470030202F885
:1002610024056003020316C293D294D2950511E5C9
:100271001170020510C39403E510940050030203AA
:1002810016750901806EC293D294D2950511E511BC
:1002910070020510C39402E51094004078750902BC
:1002A1008052C293D294D2950511E51170020510C6
:1002B100C39401E5109400405C7509038036D29324
:1002C100D294C2950511E51170020510C39403E59E
:1002D1001094004040750904801AD293C294D295BB
:1002E1000511E51170020510C39402E51094004058
:1002F10024750905E4801AC293D294D2950511E5BB
:100301001170020510C39401E51094004007E4F553
:0603110009F510F51122B0
:03000000020317E1
:0C031700787FE4F6D8FD75811102035ECA
:10002E00E88FF0A4CC8BF0A42CFCE98EF0A42CFC71
:10003E008AF0EDA42CFCEA8EF0A4CDA8F08BF0A4EF
:10004E002DCC3825F0FDE98FF0A42CCD35F0FCEB4E
:10005E008EF0A4FEA9F0EB8FF0A4CFC5F02ECD3913
:0F006E00FEE43CFCEAA42DCE35F0FDE43CFC2280
:10007D0075F008758200EF2FFFEE33FECD33CDCC3A
:10008D0033CCC58233C5829BED9AEC99E5829840BD
:10009D000CF582EE9BFEED9AFDEC99FC0FD5F0D69A
:1000AD00E4CEFBE4CDFAE4CCF9A88222B800C1B9C4
:1000BD000059BA002DEC8BF084CFCECDFCE5F0CB02
:1000CD00F97818EF2FFFEE33FEED33FDEC33FCEB3B
:1000DD0033FB10D703994004EB99FB0FD8E5E4F9F6
:1000ED00FA227818EF2FFFEE33FEED33FDEC33FCE3
:1000FD00C933C910D7059BE99A4007EC9BFCE99AD7
:10010D00F90FD8E0E4C9FAE4CCFB2275F010EF2F1B
:10011D00FFEE33FEED33FDCC33CCC833C810D7071B
:10012D009BEC9AE899400AED9BFDEC9AFCE899F856
:0E013D000FD5F0DAE4CDFBE4CCFAE4C8F922E9
:1003230002001AE493A3F8E493A34003F68001F2D6
:1003330008DFF48029E493A3F85407240CC8C333DB
:10034300C4540F4420C8834004F456800146F6DFAA
:10035300E4800B0102040810204080900003E47E37
:10036300019360BCA3FF543F30E509541FFEE4939F
:10037300A360010ECF54C025E060A840B8E493A366
:10038300FAE493A3F8E493A3C8C582C8CAC583CA91
:10039300F0A3C8C582C8CAC583CADFE9DEE780BE49
:0100190000E6
:00000001FF
