:0A051A004C45445F464C4153480035
:1002F3007BFF7A05791AC003C002C0011203D2E959
:100303002406F9E43AFA1200F989828A83D001D0EB
:1003130002D0031201C51203D2E92409F9E43AFA1F
:100323001200F91201C11203D2E9240CF9E43AFADA
:100333001200F91201C11204441200F989828A835E
:090343007F017E001201C580DD7E
:1004D80044454641554C54004C45445F464C4153B5
:0204E8004800CA
:0404BF000217000020
:0F04EA007B007A00792112034C7B007A00792184
:0104F90022E0
:10034C008B308A3189327BFF7A027995C003C002E7
:10035C00C001AB30AA31A9329000061201687BFFB4
:10036C007A057924C003C002C001AB30AA31A9328E
:10037C009000091201687BFF7A05792BC003C0023B
:0F038C00C001AB30AA31A93290000C12016822D7
:1003D200E5184517701F1204EA78087C007D007E3C
:1003E200007F0F1200D37BFF7A0479D81202957531
:0C03F20017007518017B007A00790822C2
:100295008B338A348935154615461546A84676FFAB
:1002A5000876040876E0AB33AA34A935C003C0024A
:1002B500C001120000E92403F9E43AFA1200F989B1
:1002C500828A83D001D002D0031201C5EF4E7B0094
:1002D5007A007908C003C002C0011203FE1200F9BA
:0E02E50089828A83D001D002D0031201C52283
:07052400AA09A90A0201C1A6
:07052B00AA0CA90D0201C199
:0A04C300C100021B00000219000036
:0F04FA007B007A0079361204877B007A0079360E
:0105090022CF
:100487008B398A3A893B7BFF7A03799BC003C00289
:0C049700C001AB39AA3AA93B120119229E
:1003FE00E51A451970161204FA781D7C007D007EF0
:10040E00007F031200D3751900751A017B007A0064
:03041E00791D2223
:10039B008B3C8A3D893E7BFF7A057932C003C002D4
:1003AB00C001AB3CAA3DA93E9000091201687BFF3E
:1003BB007A047921C003C002C001AB3CAA3DA93E1F
:0703CB0090000C12016822F2
:03053200D2902242
:10042100051CE51C7002051BC394E8E51B94034001
:1004310011E4F51BF51C200005D200C29022C20078
:03044100D2902234
:0A04CD00C10102410000023F0000DF
:0F050A007B007A0079211204A37B007A0079210B
:0105190022BF
:1004A3008B248A2589267BFF7A047967C003C002DF
:0C04B300C001AB24AA25A92612011922C1
:10044400E540453F701612050A78437C007D007E26
:10045400007F031200D3753F007540017B007A00D2
:03046400794322B7
:10046700E4FDFCC3ED9FEC9E5015E4FBFA0BBB00CB
:0F047700010AEB646E4A70F50DBD00010C80E4C4
:010486002253
:03000000020209F0
:0C020900787FE4F6D8FD758146020250B3
:10000300E709F608DFFA8046E709F208DFFA803EDF
:1000130088828C83E709F0A3DFFA8032E309F608CC
:10002300DFFA8078E309F208DFFA807088828C8334
:10003300E309F0A3DFFA806489828A83E0A3F608E8
:10004300DFFA805889828A83E0A3F208DFFA804CC2
:1000530080D280FA80C680D4806980F28033801099
:1000630080A680EA809A80A880DA80E280CA803302
:1000730089828A83ECFAE493A3C8C582C8CCC5837A
:10008300CCF0A3C8C582C8CCC583CCDFE9DEE7804A
:100093000D89828A83E493A3F608DFF9ECFAA9F0C9
:1000A300EDFB2289828A83ECFAE0A3C8C582C8CC1F
:1000B300C583CCF0A3C8C582C8CCC583CCDFEADE38
:1000C300E880DB89828A83E493A3F208DFF980CC9A
:1000D30088F0EF60010E4E60C388F0ED2402B40493
:1000E3000050B9F582EB2402B4040050AF2323453A
:0600F3008223900053730C
:1000F900BB010789828A830201D95005E9F8020107
:10010900C7BBFE05E9F80201EB89828A830201FD7A
:10011900BB011A89828A83D0F0D0E0F8D0E0F9D007
:10012900E0FAD0E0FBE8C0E0C0F00201E25016E9D5
:10013900F8D083D082D0E0F9D0E0FAD0E0FBC082D9
:10014900C0830201D0BBFE16E9F8D083D082D0E08B
:0F015900F9D0E0FAD0E0FBC082C0830201F422AB
:10016800BB0120E58229F582E5833AF583D0F0D0FA
:10017800E0F8D0E0F9D0E0FAD0E0FBE8C0E0C0F069
:100188000201E25018E92582F8D083D082D0E0F944
:10019800D0E0FAD0E0FBC082C0830201D0BBFE18D9
:1001A800E92582F8D083D082D0E0F9D0E0FAD0E017
:0901B800FBC082C0830201F422A5
:0601C1008A838982E473C9
:100215000202F3E493A3F8E493A34003F68001F20A
:1002250008DFF48029E493A3F85407240CC8C333EA
:10023500C4540F4420C8834004F456800146F6DFB9
:10024500E4800B01020408102040809004BFE47E86
:10025500019360BCA3FF543F30E509541FFEE493AE
:10026500A360010ECF54C025E060A840B8E493A375
:10027500FAE493A3F8E493A3C8C582C8CAC583CAA0
:10028500F0A3C8C582C8CAC583CADFE9DEE780BE58
:0104D7000024
:0901C700E6FB08E6FA08E6F9225D
:0901D000EBF608EAF608E9F62254
:0901D900E0FBA3E0FAA3E0F92227
:0901E200EBF0A3EAF0A3E9F0221E
:0901EB00E2FB08E2FA08E2F92245
:0901F400EBF208EAF208E9F2223C
:0C01FD00E493FB740193FA740293F9225E
:00000001FF
