:0A07D4004C45445F464C4153480079
:100486007BFF7A0779D4C003C002C0011205E5E9F3
:100496002406F9E43AFA12014889828A83D001D007
:1004A60002D0031202141205E5E92409F9E43AFA26
:1004B6001201481202101205E5E9240CF9E43AFA91
:1004C6001201481202101206C612014889828A8356
:0904D6007F017E0012021480DD9A
:0406E90002480000C3
:0F0774007B007A00793612052E7B007A007936E9
:010783002253
:10052E008B3F8A4089417BFF7A06791AC003C0024D
:10053E00C001AB3FAA40A9411201687BFF7A027944
:10054E0058C003C002C001AB3FAA40A941900003AE
:10055E001201B77BFF7A037910C003C002C001AB52
:0C056E003FAA40A9419000061201B722EC
:10063A00E54945487016120774784A7C007D007EA9
:10064A00007F091200D37548007549017B007A00C2
:03065A00794A22B8
:09061100F8860308E6FA08E6F990
:06061A008B428A43894473
:10062000E4FFFEAB42AA43A9448F828E831200F9F5
:0906300060070FBF00010E80EA13
:01063900229E
:10025800156215621562A862A60308A60208A6011F
:06026800E56224FAF562D4
:10026E00F8E4F608F6E5622406120611A8620808FC
:10027E00A60608A607E5622409120611E562240403
:10028E00F8A60608A607E5622404F9A8620808E69F
:10029E00FE08E609677003EE196760028049E562A1
:1002AE002406F8860308E6FA08E6F9A862E6FE08D0
:1002BE00E6FFF5828E831200F9603CE5622409F8B0
:1002CE00860308E6FA08E6F98F828E831200F9FD9E
:1002DE00E5622406F8860308E6FA08E6F98F828EB0
:1002EE00831200F96D6005E4FEFF800FA862080618
:0B02FE00E61870AA0680A77E007F01B2
:07030900E562240CF56222FD
:10031000156215621562A862A60308A60208A60166
:0403200015621562EB
:10032400A862E4F608F6E5622405F8860308E6FA0E
:1003340008E6F9A862E6FE08E6FFF5828E8312005D
:10034400F96034E5622405F8860308E6FA08E6F95C
:100354008F828E831200F9FDA8620808860308E6DE
:10036400FA08E6F98F828E83ED120126A862080648
:10037400E61870B20680AFA8620808860308E6FA99
:1003840008E6F9A862E6FE08E6F5828E83E4120127
:010394002642
:07039500E5622408F5622275
:0406ED00025D0000AA
:0F0784007B007A00793612072A7B007A007936DB
:010793002243
:10072A008B398A3A893B7BFF7A05797AC003C00202
:0C073A00C001AB39AA3AA93B12016822A9
:10065D00E55E455D7016120784785F7C007D007E37
:10066D00007F031200D3755D00755E017B007A007B
:03067D00795F2280
:10057A008B3C8A3D893E7BFF7A0779DEC003C00245
:10058A00C001AB3CAA3DA93E9000091201B77BFF0E
:10059A007A077994C003C002C001AB3CAA3DA93EC8
:0705AA0090000C1201B722C2
:0907DE001206801201480202100B
:10079400120680E92403F9E43AFA1201480202102D
:1007620044454641554C54004C45445F464C415328
:0207720048003D
:0406F10002170000EC
:0F07A4007B007A0079211204DF7B007A00792133
:0107B3002223
:1004DF008B308A3189327BFF7A047928C003C002BE
:1004EF00C001AB30AA31A9329000061201B77BFFD1
:1004FF007A0779E7C003C002C001AB30AA31A93235
:10050F009000091201B77BFF7A0779EEC003C00292
:0F051F00C001AB30AA31A93290000C1201B722F3
:1005E500E5184517701F1207A478087C007D007E6A
:1005F500007F0F1200D37BFF7A07796212042875FA
:0C06050017007518017B007A00790822AC
:100428008B338A348935156215621562A86276FFA6
:1004380008760708766AAB33AA34A935C003C00228
:10044800C00112063AE92403F9E43AFA120148898C
:10045800828A83D001D002D003120214EF4E7B00AF
:100468007A007908C003C002C00112065D12014873
:0E04780089828A83D001D002D003120214229E
:0707E700AA09A90A02021091
:0707EE00AA0CA90D02021084
:0A06F500C10002550000025300008E
:0F07B4007B007A00793F1205B17B007A00793F14
:0107C3002213
:1005B1008B458A4689477BFF7A0779F5C003C002DC
:1005C100C001AB45AA46A9471201687BFF7A0679AB
:1005D100A3C003C002C001AB45AA46A947900003CE
:0405E1001201B7222A
:10068000E554455370161207B478577C007D007E00
:10069000007F061200D37553007554017B007A0069
:0306A00079572265
:0307F500D290227D
:1006A3000556E55670020555C394E8E55594034095
:1006B30011E4F555F556200005D200C29022C20080
:0306C300D29022B0
:0A06FF00C101021B000002190000F7
:0F07C4007B007A0079211207467B007A007921A9
:0107D3002203
:100746008B248A2589267BFF7A07790AC003C00293
:0C075600C001AB24AA25A92612016822CC
:1006C600E51A451970161207C4781D7C007D007E58
:1006D600007F031200D3751900751A017B007A009A
:0306E600791D2259
:10070A00E4FDFCC3ED9FEC9E5015E4FBFA0BBB0025
:0F071A00010AEB647F4A70F50DBD00010C80E40D
:0107290022AD
:0300000002039C5C
:0C039C00787FE4F6D8FD7581620203E36F
:10000300E709F608DFFA8046E709F208DFFA803EDF
:1000130088828C83E709F0A3DFFA8032E309F608CC
:10002300DFFA8078E309F208DFFA807088828C8334
:10003300E309F0A3DFFA806489828A83E0A3F608E8
:10004300DFFA805889828A83E0A3F208DFFA804CC2
:1000530080D280FA80C680D4806980F28033801099
:1000630080A680EA809A80A880DA80E280CA803302
:1000730089828A83ECFAE493A3C8C582C8CCC5837A
:10008300CCF0A3C8C582C8CCC583CCDFE9DEE7804A
:100093000D89828A83E493A3F608DFF9ECFAA9F0C9
:1000A300EDFB2289828A83ECFAE0A3C8C582C8CC1F
:1000B300C583CCF0A3C8C582C8CCC583CCDFEADE38
:1000C300E880DB89828A83E493A3F208DFF980CC9A
:1000D30088F0EF60010E4E60C388F0ED2402B40493
:1000E3000050B9F582EB2402B4040050AF2323453A
:0600F3008223900053730C
:1000F900BB010CE58229F582E5833AF583E02250BC
:1001090006E92582F8E622BBFE06E92582F8E22205
:0D011900E58229F582E5833AF583E493221F
:10012600F8BB010DE58229F582E5833AF583E8F00F
:10013600225006E92582C8F622BBFE05E92582C8BB
:02014600F222A3
:10014800BB010789828A830202285005E9F8020266
:1001580016BBFE05E9F802023A89828A8302024C3C
:10016800BB011A89828A83D0F0D0E0F8D0E0F9D0B8
:10017800E0FAD0E0FBE8C0E0C0F00202315016E936
:10018800F8D083D082D0E0F9D0E0FAD0E0FBC0828A
:10019800C08302021FBBFE16E9F8D083D082D0E0EC
:0F01A800F9D0E0FAD0E0FBC082C083020243220C
:1001B700BB0120E58229F582E5833AF583D0F0D0AB
:1001C700E0F8D0E0F9D0E0FAD0E0FBE8C0E0C0F01A
:1001D7000202315018E92582F8D083D082D0E0F9A5
:1001E700D0E0FAD0E0FBC082C08302021FBBFE183A
:1001F700E92582F8D083D082D0E0F9D0E0FAD0E0C8
:09020700FBC082C0830202432205
:060210008A838982E47379
:1003A800020486E493A3F8E493A34003F68001F2E1
:1003B80008DFF48029E493A3F85407240CC8C33356
:1003C800C4540F4420C8834004F456800146F6DF25
:1003D800E4800B01020408102040809006E9E47EC6
:1003E800019360BCA3FF543F30E509541FFEE4931A
:1003F800A360010ECF54C025E060A840B8E493A3E1
:10040800FAE493A3F8E493A3C8C582C8CAC583CA0B
:10041800F0A3C8C582C8CAC583CADFE9DEE780BEC3
:0107090000EF
:09021600E6FB08E6FA08E6F9220D
:09021F00EBF608EAF608E9F62204
:09022800E0FBA3E0FAA3E0F922D7
:09023100EBF0A3EAF0A3E9F022CE
:09023A00E2FB08E2FA08E2F922F5
:09024300EBF208EAF208E9F222EC
:0C024C00E493FB740193FA740293F9220E
:00000001FF
