:100100007F027E00120003AA06A9077B01E475F0B6
:100110000A12014312016E1200DB7F017E00120100
:030120002380F445
:0B016E007590FFD200E4F50CF50D22A7
:1000DB00050DE50D7002050CC394E8E50C94034087
:1000EB0013E4F50CF50D300006C2007590F022D22A
:0500FB000075900F22CA
:10012300E4FDFCC3ED9FEC9E5015E4FBFA0BBB0012
:0F013300010AEB647F4A70F50DBD00010C80E4FA
:01014200229A
:0300000002016298
:0C016200787FE4F6D8FD758120020100D2
:10014300BB010A89828A83F0E5F0A3F0225006F707
:0F01530009A7F01922BBFE06F3E5F009F3192204
:100003008E088F097E007F008F828E83E0FCA3E041
:10001300FD4C7003FEFF228D828C83A3A3E0FAA321
:10002300E0FBC39509EA95085008CEECCECFEDCF9F
:1000330080D6C3EB9509F50BEA9508F50AC3E50BE2
:100043009410E50A940050198D828C83E0FBA3E0A1
:100053008F828E83CBF0A3EBF0ED2404FFE43CFE10
:100063002274FC250BF50B74FF350AF50A8D828C7F
:1000730083A3A3F0A3E50BF0ED2404FFE43CFEEF20
:10008300250BFFEE350AFE8F82F583A3A3E508F067
:0C009300A3E509F0EF2404FFE43EFE2288
:0B017900480000000000000000000033
:10009F00EF4E7008FE7F01ED1D70011C900000EE09
:1000AF00F0A3EFF0A3ECF0A3EDF0900000E0FEA3BF
:1000BF00E0FFF5828E83E4F0A3F0ED24FCFDEC3439
:0C00CF00FF8F828E83A3A3F0A3EDF0222C
:00000001FF
