:10030300426F6E6A6F757220746F7574206C65200E
:060313006D6F6E646500D1
:1002CC007F0A12026E7F807E251202A07BFF7A03CA
:0D02DC00790312000312033B12033780FB6D
:06002300010800011D00B0
:1002A0007C2E7DE0120178A804A905AA06AB077F81
:1002B000007E707D997C141200E6EFF404438920DF
:0B02C000759850F58DF58BC2ACD28E06
:0102CB002210
:10031900E508C39414500974092508F8A6070508C7
:0103290022B1
:060003008B1E8A1F8920FC
:10000900E4FEAB1EAA1FA9208E8275830012002E62
:09001900FF60061203190E80E9D4
:0100220022BB
:0D032A00BF0A027F0D8F993099FDC2992204
:1002E900E51DC39508500D7409251DF8E6FF120395
:0A02F9002A051D22E4F51DF5082278
:10026E00E4FCFDFEFB7AC079A8F812005BE47BE0AB
:10027E007A2EF9F81200E6C3E49FFFE49EAD07FF65
:10028E00AE05E4F5C88FCD8FCB8ECC8ECAD2ADD253
:01029E00CA95
:01029F00223C
:03033B00D2AF221C
:0403370043870122D5
:03002B000202319D
:10023100C0E0C0F0C083C082C0D075D000C000C093
:1002410001C002C003C004C005C006C007C2CF126E
:1002510002E9D007D006D005D004D003D002D001E6
:0D026100D000D0D0D082D083D0F0D0E032D9
:030000000201A555
:0C01A500787FE4F6D8FD7581200201ECA3
:10002E00BB010CE58229F582E5833AF583E0225087
:10003E0006E92582F8E622BBFE06E92582F8E222D1
:0D004E00E58229F582E5833AF583E49322EB
:10005B00E88FF0A4CC8BF0A42CFCE98EF0A42CFC44
:10006B008AF0EDA42CFCEA8EF0A4CDA8F08BF0A4C2
:10007B002DCC3825F0FDE98FF0A42CCD35F0FCEB21
:10008B008EF0A4FEA9F0EB8FF0A4CFC5F02ECD39E6
:0F009B00FEE43CFCEAA42DCE35F0FDE43CFC2253
:1000AA0075F008758200EF2FFFEE33FECD33CDCC0D
:1000BA0033CCC58233C5829BED9AEC99E582984090
:1000CA000CF582EE9BFEED9AFDEC99FC0FD5F0D66D
:1000DA00E4CEFBE4CDFAE4CCF9A88222B800C1B997
:1000EA000059BA002DEC8BF084CFCECDFCE5F0CBD5
:1000FA00F97818EF2FFFEE33FEED33FDEC33FCEB0E
:10010A0033FB10D703994004EB99FB0FD8E5E4F9C8
:10011A00FA227818EF2FFFEE33FEED33FDEC33FCB5
:10012A00C933C910D7059BE99A4007EC9BFCE99AA9
:10013A00F90FD8E0E4C9FAE4CCFB2275F010EF2FEE
:10014A00FFEE33FEED33FDCC33CCC833C810D707EE
:10015A009BEC9AE899400AED9BFDEC9AFCE899F829
:0E016A000FD5F0DAE4CDFBE4CCFAE4C8F922BC
:10017800EC8EF0A4CCC5F0CCCDF8EFA4CEC5F02D14
:10018800FDE43CFCE8A42EC8C5F03DFDE43CFCEFD2
:0D019800A4FFE5F028FEE43DFDE43CFC2260
:1001B1000202CCE493A3F8E493A34003F68001F296
:1001C10008DFF48029E493A3F85407240CC8C3334F
:1001D100C4540F4420C8834004F456800146F6DF1E
:1001E100E4800B0102040810204080900023E47E8B
:1001F100019360BCA3FF543F30E509541FFEE49313
:10020100A360010ECF54C025E060A840B8E493A3D9
:10021100FAE493A3F8E493A3C8C582C8CAC583CA04
:10022100F0A3C8C582C8CAC583CADFE9DEE780BEBC
:0100290000D6
:00000001FF
